:100000000C942A000C9434000C9434000C943400AA
:100010000C9434000C9434000C9434000C94340090
:100020000C9434000C9434000C9434000C94340080
:100030000C9434000C9434000C9434000C94340070
:100040000C9434000C9434000C9434000C94340060
:100050000C94340011241FBECFE5D8E0DEBFCDBF25
:100060000E9436000C9443010C940000DF93CF9360
:10007000CDB7DEB7E1E3F0E08FEF8083E2E3F0E0BD
:100080008FEF808364EF71E080E090E00E94BA001F
:10009000E2E3F0E0108264EF71E080E090E00E9423
:1000A000BA00ECCFDF93CF93CDB7DEB72C970FB666
:1000B000F894DEBF0FBECDBF69877A878B879C8798
:1000C00089859A85AB85BC8520E43FE140E050E01E
:1000D000BC01CD010E942401DC01CB01885A904073
:1000E000A040B040689415F8B695A7959795879568
:1000F0001694D1F789839A83AB83BC831D821E82B9
:100100001F82188620C000000000000000000000D0
:1001100000000000000000000000000000000000DF
:1001200000000000000000000000000000000000CF
:100130008D819E81AF81B8850196A11DB11D8D83F2
:100140009E83AF83B8872D813E814F8158858981F9
:100150009A81AB81BC81281739074A075B0708F4ED
:10016000D2CF2C960FB6F894DEBF0FBECDBFCF9185
:10017000DF910895DF93CF93CDB7DEB72C970FB6FD
:10018000F894DEBF0FBECDBF69877A878B879C87C7
:1001900089859A85AB85BC85880F991FAA1FBB1FCF
:1001A000880F991FAA1FBB1F880F991FAA1FBB1F6B
:1001B0008B579040A040B040689415F8B695A7952D
:1001C000979587951694D1F789839A83AB83BC83DF
:1001D0001D821E821F82188620C0000000000000C1
:1001E000000000000000000000000000000000000F
:1001F00000000000000000000000000000000000FF
:10020000000000008D819E81AF81B8850196A11DFF
:10021000B11D8D839E83AF83B8872D813E814F8131
:10022000588589819A81AB81BC81281739074A0793
:100230005B0708F4D2CF2C960FB6F894DEBF0FBE42
:10024000CDBFCF91DF910895629FD001739FF001E0
:10025000829FE00DF11D649FE00DF11D929FF00D56
:10026000839FF00D749FF00D659FF00D9927729F8D
:10027000B00DE11DF91F639FB00DE11DF91FBD0118
:0A028000CF0111240895F894FFCF78
:00000001FF
